:020000040800F2
:10000000700E0020A10100088F3800087932000826
:100010008D380008850900086147000800000000CD
:10002000000000000000000000000000113C00087B
:10003000E10A00080000000091380008133C0008A5
:10004000BB010008BB010008BB010008BB010008A0
:10005000BB010008BB010008BB010008BB01000890
:10006000BB010008BB010008E30A0008BB0100084F
:10007000BB010008BB010008BB010008BB01000870
:10008000BB010008BB010008BB010008BB01000860
:10009000BB010008BB010008BB010008BB01000850
:1000A000BB010008B13C0008BB010008BB0100080F
:1000B000BB010008BB010008BB010008BB01000830
:1000C000BB010008BB010008BB010008BB01000820
:1000D000BB0100083D470008494700085547000894
:1000E000BB010008BB010008BB010008BB01000800
:1000F000BB010008BB010008BB010008BB010008F0
:10010000BB010008BB010008BB010008BB010008DF
:10011000BB010008BB010008BB010008BD3C000892
:10012000BB010008BB010008BB010008BB010008BF
:10013000BB010008BB010008BB010008BB010008AF
:10014000BB010008BB010008BB010008BB0100089F
:10015000BB010008BB010008BB010008BB0100088F
:10016000BB010008BB010008BB010008BB0100087F
:10017000BB010008BB0100080000000000000000F7
:10018000BB010008BB010008DFF810D000F032FA14
:10019000004800472D4E0008AFF30080700E00208D
:1001A0000648804706480047FEE7FEE7FEE7FEE711
:1001B000FEE7FEE7FEE7FEE7FEE7FEE7A13C0008FC
:1001C000890100082DE9F05F0546002092469B4614
:1001D00088460646814640241BE02846414647465D
:1001E000224600F0B4F953465A46C01A914110D342
:1001F00011461846224600F09BF92D1A67EB0108BC
:100200004F4622460120002100F092F917EB000929
:100210004E41201EA4F10104DFDC484631462A4647
:10022000434600F000B830BCBDE8C09FD2B201E048
:1002300000F8012B491EFBD270470022F6E710B5EB
:1002400013460A4604461946FFF7F0FF204610BD44
:1002500030B505462A460B4612F8010B13F8014B40
:1002600008B1A042F8D01CB1002802D06D1CF1E703
:10027000284630BD421C10F8011B0029FBD1801A12
:100280007047034611F8012B00F8012B002AF9D121
:10029000184670470FB400B58DB010A909900B90A7
:1002A00000914FF0FF300A9000200C900548069016
:1002B000054807906A4609A80F9900F06DF90DB03E
:1002C0005DF814FBB5050008D30500082DE9FF5FB4
:1002D0001D464FF0FF3BD5E9014691465F464FF082
:1002E0000008A9697F1C01988847296A82468847C7
:1002F0000028F6D1BAF1FF3F0CD024F4C064002EE0
:1003000019DD600614D5BAF12B0F09D0BAF12D0F03
:100310000ED103E0584604B000F07EB844F4806487
:10032000A9697F1C01988847761E8246002E02DD4F
:10033000BAF1300F03D0B9F1000F26D032E0A9692D
:10034000761E44F400747F1C019888478246002E74
:1003500005DDBAF1780F06D0BAF1580F03D0B9F124
:10036000000F10D01EE0B9F1000F02D0B9F1100F4C
:1003700018D1A969761E24F400747F1C019888475F
:100380008246102002E0082000E00A20814609E0B1
:1003900008FB0908A969761E44F400747F1C0198C3
:1003A00088478246002E05DD4946504600F0DFF8BA
:1003B0000028EDDAE96901988847A00502D46FF0BA
:1003C0000100A8E7E00725D1600613D5600502D536
:1003D000C8F1000000E0404629680A1D2A6009684B
:1003E000220501D5087015E0220701D5088011E02B
:1003F00008600FE02868011D29600068210502D50A
:1004000080F8008006E0210702D5A0F8008001E016
:10041000C0F8008038467EE730BCBDE8C09F2DE9BB
:10042000FF5FD2E901A74FF0000891699946144691
:10043000DDF838B0464601988847054659EA0B0072
:1004400005D009E0A169761C019888470546216A14
:10045000284688470028F5D1681C03D05FEACA7097
:1004600005D015E04FF0FF3004B000F048B8206828
:10047000011D2160D0F800800AE05FEACA7001D156
:1004800008F8015BA169761C7F1E01988847054624
:10049000002F1ADD681C18D0B9F1000F0DD0E81735
:1004A00005EBD060421120F01F0059F822102A1AE3
:1004B000012090400142E0D107E0BBF1000FDCD108
:1004C000216A284688470028D7D0E16901988847E3
:1004D000BBF1000F07D1002E05DD5FEACA7002D123
:1004E000002188F80010A068B84203DDBBF1000FBE
:1004F00003D017B16FF00100B6E73046B4E730BC67
:10050000BDE8C09F30B50B460146002020220124E3
:1005100009E021FA02F59D4205D303FA02F5491BD1
:1005200004FA02F52844151EA2F10102F1DC30BDE7
:10053000202A04DB203A00FA02F1002070479140A3
:10054000C2F1200320FA03F3194390407047202A98
:1005500004DB203A21FA02F00021704721FA02F36D
:10056000D040C2F1200291400843194670473A2812
:1005700000D2303820F02002412A01D3A2F1370006
:10058000884201D34FF0FF307047000002681144E9
:100590001378016018467047D160044951610449DD
:1005A000116200211161114600F03CB88D05000870
:1005B00019060008426842B1016811F8013B23B1F5
:1005C000521EC0E90012184670470121C160881E02
:1005D000704742685AB1C368016843B983688B4267
:1005E00005D0491E521CC0E90012002070474FF090
:1005F000FF307047064C074D06E0E06840F001030D
:1006000094E8070098471034AC42F6D3FFF7C0FDDA
:10061000E4C1000804C20008C0B24FF4F05100F079
:100620009DB900002DE9F34F8BB04FF0000801F1A8
:100630000C000C464FF0010B46460DF1080A0190E4
:100640006269012101989047051E2DD0252D2CD0DF
:10065000216A8847C0B16269012101989047216AE7
:1006600088470028F7D1411E62690198904700E051
:10067000761CA1690B988847216A88470028F7D122
:10068000E1690B988847DBE7A1690B988847074623
:10069000A84201D1761CD3E7E1690B9888477F1CFB
:1006A00002D1B8F1000F6FD047E1002762693D46E3
:1006B0003946019890472A2804D16269012101989E
:1006C00090470125DFF888926269012101989047DF
:1006D000A0F130010A290AD24F45E5DC07EB87017A
:1006E00000EB4107303FDFD445F01005ECE7E906A9
:1006F00001D46FF000476C280AD04C2814D0682829
:1007000015D06A280DD074281CD07A281AD01DE084
:1007100062690121019890476C2802D045F00405D8
:1007200014E045F002050DE045F020050AE062699D
:10073000012101989047682802D045F0080505E09E
:1007400045F400656269012101989047C4E90157A9
:1007500065283DD019DC58287AD00CDC452837D0E4
:1007600004DC252826D0412831D131E046282FD07D
:1007700047282CD12CE05B2877D0612828D063282B
:100780007CD0642823D15AE0D1E06F2848D008DC1F
:1007900066281DD067281BD0692821D06E2816D165
:1007A00027E0702845D0732868D0752847D078286E
:1007B0000DD14DE0A1690B988847054625283FF4E7
:1007C00069AFE1690B9888476D1C3FF46AAFB4E0EC
:1007D00023466A466FF001000B99AFF300809FE05B
:1007E00045F040006060A80723464FF0000236D471
:1007F0003EE0E8077FF447AF2068011D21600068F4
:10080000290501D506701BE7290701D5068017E7E2
:10081000A90703D5F117C0E9006111E706600FE7EA
:1008200045F040006060A80723464FF0080216D448
:100830001EE040F60E0125EA0100606016E045F07A
:1008400040006060A80723464FF00A0207D40FE07B
:1008500045F040006060A80708D5234610226FF0DD
:1008600001000B99AFF300805AE007E02346102205
:100870006FF001000B99FFF729FD51E04FF00009DF
:100880004F464B46632802D05B2807D041E02079D1
:10089000C00601D40120A06001273AE0626901216D
:1008A000019890475E2805D14FF0010962694946D9
:1008B00001989047216939B900210A46534643F807
:1008C0002120491C0829FADBB0B3216969B9C11795
:1008D00000EBD16253110AEB830122F01F02821A4E
:1008E00001200B68904003430B606269012101986D
:1008F00090475D28E8D1B9F1000F09D0002051469A
:1009000051F82020D24341F82020401C0828F7DB72
:1009100002AB224600976FF001000B99FFF77FFDB5
:1009200000280CDA401C08D1BBF1000F05D04FF0B5
:10093000FF300DB000F00EB8FFE74046F9E7E907D9
:1009400001D108F1010806444FF0000B78E60000E1
:10095000CCCCCC0C30BCBDE8C08F00007F2801D9C6
:10096000002208E0064A02EB5002C007127800D1CC
:10097000120902F00F020120904008407047000069
:1009800050C10008FEE700002DE9F04F8BB0924601
:100990008B4681460024FFF76DFC82B24FF6FF774D
:1009A0003B4649461C4802F00BFC1C4D1C4EA04621
:1009B0002878641C18B3B44221DC85F8008019A1A2
:1009C0001948FFF745FC68B1594618A003F0CAFE64
:1009D0001BA003F0C7FE4FF4FA7000F009FB0BB048
:1009E00000F032B8524611A1684603F0CBFE6946CA
:1009F00014A003F0B7FE12A003F0B4FED8E7B4428F
:100A0000D6DD00244846FFF735FC82B23B46494616
:100A1000014802F0D5FBCBE79C0700201000002026
:100A200080F0FA024F4B0000CC0200206D61696E2D
:100A30002E7431312E7478743D222573220000000B
:100A4000FFFFFF002573000030BCBDE8C08F10B56C
:100A5000846A204600F0DCF80120207110BD10B53A
:100A6000846A204600F042F80120207110BD10B5C4
:100A7000846A206940F004002061204600F0CAF832
:100A80000120207110BD10B5846A206940F0040077
:100A90002061204600F02CF80120207110BD10B517
:100AA000806A00F0B6F810BD10B5806A00F01FF83B
:100AB00010BD30B590F8444004F01C050124AC4052
:100AC000056C6C60046863608368102B036803D056
:100AD00099600068C26030BD9A600068C16030BD36
:100AE0007047102000F020BB72B6FEE770477047D9
:100AF00070472DE9F0470446407990460E4601289C
:100B00000BD04FF0010984F8059002202071316864
:100B100008F01005042903D045E00220BDE8F08765
:100B200000F028FC07465FEA08004FF0030805D0F4
:100B30001CE000F01FFCC01B01280FD82068406B90
:100B40000004F6D4012000F053FA2168B06908646B
:100B500016E000F00FFCC01B012807D9206940F007
:100B60000800206184F804800320D7E72068406BE8
:100B70000028EEDB012000F03BFA2168B0694864F0
:100B80002068816C40F2FF32AA409143F269AA408A
:100B9000114381642168C86CFF22AA409043326AE5
:100BA000AA401043C8643069012808D12268916BBB
:100BB0001F20A84081437069A840084390632268C1
:100BC000D16B0720A8408143B36830681843F368AD
:100BD0001843A8400843D063206801684FF480425E
:100BE000AA40914301602268106840F6FC71A94058
:100BF00088437168A9400143116020680168C022E0
:100C0000AA409143016084F804900020607185E758
:100C100070477047704770B5040003D020790025F5
:100C200010B105E0012070BD6571204600F008F8A4
:100C300002202071256101202071002070BD00007C
:100C4000F0B587B0064614216846FFF7F6FA1C494E
:100C50003068884231D11B49886D40F0005088656A
:100C6000886D00F000500590C86C40F00100C86429
:100C7000C86C102700F001000097059003200025A4
:100C8000CDE9010569464FF0904000F059FA0F4C4C
:100C90000D4820600620C4E901078020C4E9035004
:100CA0008000C4E90505E5612046256200F008F9E9
:100CB00008B1FFF719FFB460A66207B0F0BD0000ED
:100CC000007400400010024030000240300100205B
:100CD0002DE9F04104460D46174661790022069839
:100CE000012920D00126667102212171F5B1D4F8C5
:100CF0000CC03549CCF82C10D4F80CC03349CCF8D2
:100D00003010D4F80CC03249CCF834102168D1F836
:100D100000C04CF0805CC1F800C090B3042834D00F
:100D2000082837D134E00220BDE8F081D4F808C0AB
:100D30002849CCF82C10D4F808C02749CCF830103A
:100D4000D4F808C02549CCF834102168D1F800C087
:100D50004CF4805CC1F800C020B1042805D00828FC
:100D600008D105E02268083204E022680C3201E074
:100D7000226810322068016841F400510160A068C7
:100D80000EE0FFE72268143204E02268183201E026
:100D900022681C322068016841F000510160E0685F
:100DA000394600F0EDF80021617120B1216941F070
:100DB00004012161B8E721680A6805F010039E402C
:100DC00032430A60B0E700005F0A0008A90A000881
:100DD000870A00084F0A00089F0A00086F0A0008E7
:100DE00070B504460068036801F010024FF48055A6
:100DF0009540AB4303602068036801259540AB43F1
:100E0000036049B1E06800F00FF82068016821F044
:100E100000510160002070BDA06800F005F8206856
:100E2000016821F40051F4E710B590F82510002274
:100E3000022905D00421C16380F82420012010BDBF
:100E400001680B6823F00E030B6001680B6823F048
:100E500001030B6090F84410046C01F01C030121A5
:100E600001FA03F3636080F8251080F8242010460F
:100E700010BD10B590F825100024022903D00421DC
:100E8000C16301241AE001680A6822F00E020A60B8
:100E900001680A6822F001020A6090F84410036CAD
:100EA00001F01C02012101FA02F25A6080F82510BB
:100EB000002180F82410816B01B18847204610BDC5
:100EC00070B568B12B4C036814212B4AA34209D298
:100ED0002A4C1C44B4FBF1F18900C0E910210BE05D
:100EE000012070BD234C64421C44B4FBF1F1890025
:100EF0004164204908390164022180F825101C68EA
:100F000047F6F0718C43D0E902152943D0E9045625
:100F10003543294385692943C5692943056A29431E
:100F2000214319608168B1F5804F19D0036C0F21FE
:100F3000934202D152F8A83F02E00E4AA032136851
:100F400090F8444004F01C04A1408B43136090F8D7
:100F50004430416803F01C03994013681943116041
:100F60000021C163012280F8252080F82410084662
:100F700070BD00000804024000000240F8FFFDBF01
:100F800070B5044690F82400002501280CD00120FB
:100F900084F8240094F825600020012E06D084F8FF
:100FA00024000225284670BD022070BD022684F868
:100FB0002560E0632068066826F00106066020468A
:100FC000FFF777FD206B00282068016802D041F010
:100FD0000E0106E021F0040101602068016841F083
:100FE0000A0101602068016841F001010160D9E750
:100FF00070B5044600F0BEF90546601C02D00448F6
:101000000078044400F0B6F9401BA042FAD370BD4A
:101010001800002070B52D4E1021304600F09FF9C9
:101020002B4C00284FF6FF754FF014002AD0FFF725
:10103000DFFF1021304600F092F9002845D06068AB
:10104000002842D1607800283FD122A002F016F992
:1010500022A323A226A12E4803F094FB2C48FFF7DD
:1010600009F982B22B462A492A4802F0A9F82A49EE
:1010700001206070096800204862BDE87040264881
:1010800001F00EBBFFF7B4FF1021304600F067F906
:1010900000281AD16068002817D1207861780843A9
:1010A00013D11EA002F0EAF810A30DA210A1184857
:1010B00003F068FB1648FFF7DDF82B46BDE87040EB
:1010C00082B21349134802F07BB870BD0008004893
:1010D00000000020B9D8C3C5D6D000006F666600F6
:1010E0007468656D652F65737033325F6F6E0000D5
:1010F00041542B4D5154545055423D302C222573B0
:10110000222C222573222C302C300D0A00000000E6
:10111000400000209C070020E8010020BCECB2E267
:10112000B5BDD3D0C8CB0000044910B50A6802424F
:1011300002D00860FFF76EFF10BD000014040140EC
:101140002DE9F04FDFF8EC9100220127A9F1040B03
:1011500085B003254FF00F0C09F1040AABF1040E22
:10116000E0E000BF07FA02F416EA04037ED00E792D
:1011700006F00306012E01D0022E1FD186680096CC
:10118000560005FA06F80496009E26EA0806009620
:10119000D1F80C80049E08FA06F8009E48EA06087A
:1011A000C0F80880466891F80480A643C8F3001888
:1011B00008FA02F848EA0608C0F80480D1F804806A
:1011C0006FEA0806B6070AD1C66AA643C8F3C00488
:1011D00094403443C4620C79E443A4070AD0C46841
:1011E0004FEA420805FA08F6B4438E6806FA08F694
:1011F0002643C6600C7904F00304022C11D1D408F4
:1012000000EB84060296D6F820805407E60E0CFA0E
:1012100006F428EA04080C69B440029E44EA080473
:10122000346204685600029605FA06F6B4430E7955
:1012300006F00308029E08FA06F848EA0408C0F817
:1012400000804C6814F4403F6BD03B4C266E46F057
:1012500001062666246E22F0030604F001040094C1
:10126000364C34440294A468960700E059E04FEAF3
:1012700016780CFA08F6B443B0F1904F04D0304E13
:10128000B04203D101261BE0002619E02D4EB042EA
:1012900001D1022614E02C4EB04201D103260FE00A
:1012A0002A4EB04201D104260AE0294EB04201D1B3
:1012B000052605E0274EB04201D1062600E00726AC
:1012C00006FA08F62643029CA660D9F800404E466E
:1012D000D1F804809C435FEAC82800D51C433460E1
:1012E000DAF800405646D1F804809C435FEA88282B
:1012F00000D51C433460DBF800405E46D1F8048022
:101300009C435FEA883800D51C433460DEF8004017
:101310007646D1F804809C435FEAC83800D51C4368
:101320003460521C0B681E46D3407FF41BAF05B0DF
:1013300000F012B808040140001002400000014013
:101340000004004800080048000C00480010004855
:10135000001400480018004830BCBDE8C08F006988
:10136000084000D0012070470AB181617047816256
:101370007047000001488068704700001800002096
:10138000024881680278114481607047180000208B
:1013900010B50024032000F073F8002000F008F8D6
:1013A00008B1012401E000F025F8204610BD00003E
:1013B00070B50E4E05460024307898B14FF47A711E
:1013C000B1FBF0F00A490968B1FBF0F001F011F847
:1013D00040B9102D06D200222946501E00F030F8E8
:1013E000756000E00124204670BD00001800002058
:1013F000240000200A4882B0016E41F0010101661C
:10140000016E01F001010091816D41F08051816513
:10141000806D00F080500090052002B000F030B8E0
:1014200000100240002809DB00F01F02012191405A
:101430004009800000F1E020C0F800117047000072
:10144000F0B40E4B1B680C46C3F30223C3F107052F
:10145000042D00D90425191D072901D2002300E01D
:10146000DB1E012606FA05F1491E214099409E40E7
:10147000761E16403143F0BC03F098B90CED00E045
:10148000064900F0070208684FF6FF03184040EADB
:101490000220034A10430860704700000CED00E092
:1014A0000000FA051649B0F5007F0868C0F3412036
:1014B00009D0022805D0086820F4C06040F480609C
:1014C0000860002070470128FBD0086820F4C06045
:1014D00040F4007008600B483222006850430A4A0A
:1014E000B0FBF2F0401C00E0401E4A69520501D5F5
:1014F0000028F9D148694005E3D503207047000072
:10150000007000402400002040420F0002480068A4
:1015100000F4C0607047000000700040024801689D
:1015200041F4807101607047007000402DE9F84F70
:10153000044600270088E54D3E46010504F1200BD6
:101540001DD5606E78B1B0F5800F11D0B0F5000FE9
:1015500004D0B0F5400F22D001270FE0E86840F436
:101560008030E8601BE00021201D02F093F903E0C9
:101570000021584602F024FA070010D03E46208889
:10158000C00426D5A06EC0B1B0F1807F1AD0B0F1F2
:10159000007F0DD0B0F1407F19D0012718E0D5F8B9
:1015A0008800616E20F440000843C5F88800E6E733
:1015B000E86840F48030E86009E00021201D02F076
:1015C00069F903E00021584602F0FAF90746F7B13D
:1015D0003E46206880033AD5A86D4FF00008C00051
:1015E00009D4A86D40F08050A865A86D4FF001089F
:1015F00000F080500090DFF8D8A2DAF8001041F433
:101600008071CAF80010FFF7B5FE814610E0D5F8EA
:101610008800A16E20F040700843C5F88800D8E724
:10162000FFF7A8FEA0EB0900022801D9032705E077
:10163000DAF80000C005F3D5002F7CD04FEA07068A
:10164000B8F1000F03D0A86D20F08050A865207875
:10165000C00707D0D5F88800A16B20F0030008432D
:10166000C5F888002078800707D5D5F88800E16B99
:1016700020F00C000843C5F888002078400707D503
:10168000D5F88800216C20F030000843C5F88800A8
:101690002078000707D5D5F88800616C20F0C000DD
:1016A0000843C5F888002078C00607D5D5F888001B
:1016B000A16C20F440700843C5F8880020788006AB
:1016C00007D5D5F88800E16C20F440600843C5F8E0
:1016D00088002088800507D5D5F88800E16D20F4C2
:1016E00040200843C5F888002088400507D5D5F874
:1016F0008800216E20F440100843C5F88800207847
:10170000400607D5D5F88800216D20F440500843E5
:10171000C5F888002078000607D5D5F88800616DE7
:1017200020F440400843C5F888002088C00509D54A
:10173000D5F8880000E01CE0A16D20F4403008439B
:10174000C5F8880020884FF0006780044FF080685B
:101750004FD5D5F88800E16E20F040600843C5F809
:101760008800E06EB8423CD1E86840F48010E86040
:101770003FE0D5F8900010F4407015D0D4F88410F4
:10178000814211D0D5F89000D5F8901020F4407027
:1017900041F48031C5F89010D5F8901021F48031D3
:1017A000C5F89010C5F89000C00710D0FFF7E2FD13
:1017B000074641F2883906E0FFF7DCFDC11B4945C9
:1017C00001D903263CE7D5F890008007F4D5D5F879
:1017D0009000D4F8841020F440700843C5F89000BD
:1017E0002EE7404505D10121201D02F053F800B13C
:1017F00006462068000317D5D5F88800216F20F031
:1018000040600843C5F88800206FB84204D1E868FA
:1018100040F48010E86007E0404505D10121201D1B
:1018200002F038F800B106462068400317D5D5F815
:101830008800616F20F040600843C5F88800606F41
:10184000B84204D1E86840F48010E86007E0404501
:1018500005D10121201D02F01DF800B106462088A7
:1018600040041AD5D5F88800A16F20F040500843F5
:10187000C5F88800A06FB0F1805F03D0B0F1005FC1
:1018800005D00AE00221201D02F004F803E0022145
:10189000584602F095F800B106462088000407D5A6
:1018A000D5F88800E16F20F080400843C5F8880033
:1018B0002068C00307D555F8880FD4F8801020F0B1
:1018C000004008432860304600F004B80010024091
:1018D0000070004018BCBDE8E08F00002DE9F04723
:1018E0000F4605006BD0494E306800F00700B84243
:1018F00009D2306820F0070038433060306800F0CB
:101900000700B8425BD12878414C80070AD5A86807
:10191000A16801F0F001884204D9A16821F0F0012A
:101920000143A1602878C0072CD06868032811D033
:10193000022812D0216898B1490500293FDAA16830
:1019400021F003010143A160FFF714FD804641F23D
:10195000883910E021688901EFE721688903ECE705
:101960008907EAE7FFF706FDA0EB0801494502D920
:101970000320BDE8F087A068696800F00C00B0EBB8
:10198000810FEFD1287880070AD5A868A16801F0F7
:10199000F001884204D2A16821F0F0010143A16066
:1019A000306800F00700B8420BD9306820F007001B
:1019B00038433060306800F00700B84201D00120A1
:1019C000D7E72878400705D5A068E96820F4E060EB
:1019D0000843A0602878000706D5A068296920F48C
:1019E000605040EAC100A06000F03EF8A168094ADA
:1019F000C1F30311515C01F01F01C84006490860A2
:101A000006480068BDE8F047FFF7D2BC002002405E
:101A1000001002407CBF0008240000201C000020B1
:101A20000548064900688968054AC1F30221515CEE
:101A300001F01F01C8407047240000200010024040
:101A4000BCBF00080548064900688968054AC1F31B
:101A5000C221515C01F01F01C840704724000020E2
:101A600000100240BCBF000870B52549002318468D
:101A70008A68CC6812F00C0204F00306214C4FEA8D
:101A8000640509D00C2A05D0042A32D0082A00D1D6
:101A9000284670BD012E10D10B681B0704D4D1F865
:101AA0009430C3F3032302E00B68C3F30313164E11
:101AB00056F82330DAB10C2AEBD1C86800F00300E5
:101AC000022818D0032818D01846CA68CB68C2F379
:101AD0000212C3F306234343521CB3FBF2F2C8685D
:101AE000C0F34160401C4000B2FBF0F070BD1846EE
:101AF00070BD204670BD2046E7E72846E5E70000B8
:101B0000001002400024F4008CBF00082DE9F843C7
:101B100004006FD0FD4DA86800F00C06E86800F0E6
:101B200003072078C00664D576B10C2E01D1012FB1
:101B30000AD0A069002828687AD040F00100286007
:101B4000FFF718FC80465DE02868800702D5A06991
:101B50000028DED0216A2868000703D5286800F035
:101B6000F00004E0D5F89400F02202EA101081425F
:101B700016D9084601F0A8FF00283BD1286840F09C
:101B8000080028602868216A20F0F00008432860D7
:101B90006868E16920F47F4040EA0120686016E04F
:101BA000286840F0080028602868216A20F0F000CA
:101BB000084328606868E16920F47F4040EA01201A
:101BC000686026B9206A01F07FFF0028D5D1FFF7B1
:101BD0004BFFA968CE4AC1F30311515C01F01F010C
:101BE000C840CC490860CC480068FFF7E1FB0028FA
:101BF0007ED12EE0CAE000BFFFF7BCFBA0EB0800DF
:101C0000022876D828688007F6D5286840F00800B2
:101C100028602868216A20F0F0000843286068687E
:101C2000E16920F47F4040EA0120686011E0FFE7AD
:101C300020F001002860FFF79DFB804606E000BF12
:101C4000FFF798FBA0EB08000228DAD82868800785
:101C5000F6D42078C00740D0082E18D00C2E01D121
:101C6000032F14D06068B0F5803F17D0B0F5A02FD7
:101C7000286817D020F480302860286820F480205D
:101C800028606068E0B1FFF775FB804614E02868C3
:101C9000800322D56068002878D01EE0286840F4D0
:101CA0008030EDE740F480202860F7E7FFF762FB23
:101CB000A0EB08006428A4D828688003F6D50CE0BF
:101CC000FFF758FB804605E0FFF754FBA0EB080048
:101CD000642896D828688003F6D4207880073BD5FE
:101CE000042E11D00C2E01D1022F0DD0E06801E09E
:101CF00086E1D6E0002828681ED040F48070286075
:101D0000FFF738FB07460CE0286840050CD5E06873
:101D10000028C1D008E000BFFFF72CFBC01B022841
:101D200093D828684005F7D56868217C20F0F850E2
:101D300040EA016068600FE020F480702860FFF7DF
:101D400019FB074605E000BFFFF714FBC01B022884
:101D5000B1D828684005F7D42078000729D56069F4
:101D60000028D5F8940012D040F00100C5F8940086
:101D7000FFF700FB074604E0FFF7FCFAC01B022850
:101D800099D8D5F894008007F6D512E000E120F04C
:101D90000100C5F89400FFF7EDFA074605E000BF23
:101DA000FFF7E8FAC01B02287BD8D5F8940080071B
:101DB000F6D42078400766D5A86D0027C00008D467
:101DC000A86D40F08050A865A86D012700F08050F4
:101DD000009052480168C90512D40168814641F457
:101DE00080710160FFF7C6FA804605E0FFF7C2FA8E
:101DF000A0EB0800022854D8D9F80000C005F5D59A
:101E0000A068012816D00528D5F8900017D020F03A
:101E10000100C5F89000D5F8900020F0040000BF44
:101E2000C5F89000A06841F28839C0B1FFF7A2FA66
:101E300080460FE0D5F8900040F00100F0E740F058
:101E40000400C5F89000F5E7FFF794FAA0EB08014D
:101E5000494526D8D5F890008007F5D50EE0FFF764
:101E600089FA804606E000BFFFF784FAA0EB08017C
:101E7000494516D8D5F890008007F5D41FB1A86D54
:101E800020F08050A865A06AF0B302280AD00C2E7A
:101E90007ED0286820F080702860FFF76BFA044637
:101EA000B0E0ACE0E868E26A00F00301914229D1B9
:101EB000216B00F0700209011039914222D1626B4E
:101EC00000F4FE41B1EB022F1CD1A26B00F40031F3
:101ED000072A01D0012200E00022914212D1A18FF5
:101EE00000F4C00249084905A1F50011914209D149
:101EF00094F8401000F0C06049084906A1F1007153
:101F000081425ED00C2E0BE072E000000010024017
:101F10007CBF0008240000201C000020007000404E
:101F200079D02868400176D42868C00073D4286826
:101F300020F080702860FFF71DFA064605E000BF1C
:101F4000FFF718FA801B022859D828688001F7D4B7
:101F5000D4E90B016FF00F0202EB01110843A18FCE
:101F60005204490802EB4151626B41EA02210843E5
:101F700094F840104FF07E42490802EB416108435B
:101F8000A16B090940EA4140E968244A114000E098
:101F900041E00843E860286840F080702860E86805
:101FA00040F08070E860FFF7E5F9044605E000BF07
:101FB000FFF7E0F9001B022821D828688001F7D537
:101FC00027E02868800124D4286840F080702860C9
:101FD000E86840F08070E860FFF7CCF9044604E060
:101FE000FFF7C8F9001B022809D828688001F7D537
:101FF0000FE000BFFFF7BEF9001B022802D9032043
:10200000BDE8F88328688001F4D4E86804490840F2
:10201000E8600020F4E70120F2E700008C809DF9E1
:10202000FCFFEEFE2DE9F05F044690F8200092469A
:102030008B4601281ED0012684F82060022084F8F7
:1020400021002168CA204862216853204862206824
:10205000816821F4806181602068C0684FF00007CA
:1020600040064FF0FF081BD4FFF784F905464FF4F4
:102070007A7911E0022000F02BB800BFFFF77AF95F
:10208000401B484508D92168C1F82480032084F802
:10209000210084F82070EEE72068C0684007EDD585
:1020A0002068816821F0070141EA0A018160216806
:1020B000C1F814B02068816841F4806181602168B2
:1020C000C1F8248084F8216084F820700020D2E7D1
:1020D00030BCBDE8C09F000010B500680B464168E9
:1020E0000D480140080CD870C1F304245C7001F065
:1020F0003F049C70C1F34231197052B901F022FDC6
:10210000D870587801F01EFD5870987801F01AFDCB
:102110009870002010BD00003FFFFF0010B50B4677
:102120000168896A596001680969C1F30E01996003
:10213000006801680D480140C1F305401870C1F303
:1021400006245C7001F07F049C70890DD97052B92F
:1021500001F0F8FC1870587801F0F4FC5870987889
:1021600001F0F0FC9870002010BD00007F7F7F0020
:1021700010B504004FF0010044D094F8210028B9B4
:10218000002084F82000204600F040F8022084F867
:1021900021002168CA2048622168532048622046F5
:1021A00001F0E6FC00282DD120688168164A114014
:1021B0008160216888686268A369104322691A43B4
:1021C000104388602168E0680861206801692289FD
:1021D00041EA02410161204601F0EEFC002811D1E4
:1021E0002168CA6C22F00302CA646269E169114382
:1021F0002268D36C1943D1642268FF215162012106
:1022000084F8211010BD0000BFFF8FFF10B5A2B0F1
:10221000044688216846FEF710F80B49206888427A
:1022200010D14FF400300090401221906846FFF723
:102230007DF908B1FEF758FC044850F8901F41F4AE
:102240000041016022B010BD002800400010024093
:1022500070B5044690F820000B4601281BD00126DB
:1022600084F82060022084F82100B2B19878D978EF
:1022700040EA014558781978000240EA41300543A8
:102280002168CA204862216853204862204601F034
:102290006FFCD0B120E0022070BD5878C10603D594
:1022A00000F0EF000A305870D87801F054FC0504B3
:1022B000587801F050FC45EA0025987801F04BFC75
:1022C0000543187845EA4035DAE7084805402068B4
:1022D0004560204601F070FC2268FF21516208B978
:1022E00084F82160002184F8201070BD3FFFFF00BA
:1022F0002DE9F041044690F8200090460D46012853
:1023000011D0012784F82070022084F82100216870
:10231000CA204862216853204862204601F028FC08
:10232000002618B129E00220BDE8F0812068B8F14C
:10233000000F80684FEA406024D0002800DBEE7078
:10234000A8782978EA7840EA01406978090241EAE8
:102350008251084318490840216808602068816854
:1023600021F480218160D5E90301084321688A684E
:1023700010438860204601F01FFC2268FF21516253
:10238000A0B115E0002800DBEE70287801F0E3FB37
:102390000304687801F0DFFB43EA0023A87801F02A
:1023A000DAFB0343E87843EA8050D3E784F82170EE
:1023B00084F82060B8E700007F7F7F0070B5044696
:1023C0000068C16821F0A001C160FEF7D3FF054697
:1023D0004FF47A7607E000BFFEF7CCFF401BB04217
:1023E00001D9032070BD2068C0688006F4D50020A4
:1023F00070BD10B5401EB0F1807F01D3012010BD2B
:102400004FF0E02460610F21601702F0CFF9002047
:10241000A06107202061002010BD70477047704701
:1024200030B590F83C20012A3AD0012280F83C20B7
:10243000CA688B6822F440721A434B6822F48062A7
:102440001A430B6822F400621A430B6922F480528B
:102450001A434B6922F400521A438B6A22F48042D9
:102460001A430B8B22F4702242EA03420D4D03689B
:102470000024AB4202D00C4DAB420CD18D8C22F427
:10248000700242EA0552CD6922F080722A43096A3D
:1024900022F000720A435A6480F83C40002030BDAC
:1024A000022030BD002C014000340140F0B590F80E
:1024B0003C20012A39D0012480F83C40022280F8D7
:1024C0003D20026853689568194E1A4FB24201D0F8
:1024D000BA4204D123F4700C4B6843EA0C0323F096
:1024E000700C0B6843EA0C0353600268B24210D0D0
:1024F000B2F1804F0DD0104B9A420AD00F4B9A4246
:1025000007D00F4B9A4204D0BA4202D00D4B9A42E8
:1025100004D1896825F080031943916080F83D401B
:10252000002180F83C100846F0BD0220F0BD0000FC
:10253000002C01400034014000040040000800402D
:10254000000C00400040014010B5040003D094F896
:102550003D0010B107E0012010BD002084F83C00D0
:10256000204600F023F8022084F83D00211D206859
:1025700001F0AAFB012084F8480084F83E0084F8AA
:102580003F0084F8400084F8410084F8420084F859
:10259000430084F8440084F8450084F8460084F839
:1025A000470084F83D00002010BD000008B51A4A1D
:1025B00001681A48914208D1816D41F0100181658E
:1025C000806D00F01000009008BD154A91420ED1B8
:1025D000816D41F020018165806D032200F02000B3
:1025E000009011463720FEF72BFF372010E00D4AF0
:1025F0009142E9D1016E41F400310166006E002282
:1026000000F40030009011461920FEF719FF192040
:10261000BDE80840FEF706BF001000400010024071
:10262000001400400044014090F83D10012901D001
:1026300001207047022180F83D100068114988424E
:1026400011D0B0F1804F0ED00F4988420BD00F4906
:10265000884208D00E49884205D00E49884202D0EF
:102660000D49884207D181680C4A1140062906D0DD
:10267000B1F5803F03D0016841F001010160002005
:1026800070470000002C014000040040000800409A
:10269000000C0040003401400040014007000100F0
:1026A00090F83D10012901D001207047022180F8E7
:1026B0003D100168CA6842F00102CA600068114911
:1026C000884211D0B0F1804F0ED00F4988420BD014
:1026D0000E49884208D00E49884205D00D498842EB
:1026E00002D00D49884207D181680C4A1140062961
:1026F00006D0B1F5803F03D0016841F001010160CF
:1027000000207047002C01400004004000080040F9
:10271000000C00400034014000400140070001006F
:102720000168CA6822F00102CA6001680A6A41F2BF
:1027300011131A4207D10A6A9B101A4203D10A6880
:1027400022F001020A60012180F83D10002070474C
:10275000704770B50446006801694FF00005C94331
:10276000890715D4C168C943890711D4E91E0161DD
:1027700001202077206880698007204602D0FFF77B
:10278000E7FF04E000F0D2F8204600F0A7F9257733
:1027900020680169C943490717D4C168C94349077B
:1027A00013D46FF004010161022020772068806952
:1027B00010F4407F204602D0FFF7CAFF04E000F08B
:1027C000B5F8204600F08AF9257720680169C943E9
:1027D000090716D4C168C943090712D46FF008016C
:1027E0000161042020772068C0698007204602D05C
:1027F000FFF7AEFF04E000F099F8204600F06EF914
:10280000257720680169C943C90617D4C168C9433F
:10281000C90613D46FF010010161082020772068E9
:10282000C06910F4407F204602D0FFF791FF04E01A
:1028300000F07CF8204600F051F925772068016906
:10284000C943C90708D1C168C943C90704D1891E52
:102850000161204600F0C6F920680169C9430906F4
:1028600009D4C168C943090605D46FF0800101612C
:102870002046FFF7D3FD20680169C943C90509D483
:10288000C168C943090605D46FF48071016120460F
:10289000FFF7C3FD20680169C943490609D4C1682F
:1028A000C943490605D46FF040010161204600F09C
:1028B000E9F920680169C94389060BD4C168C94395
:1028C000890607D46FF0200101612046BDE8704001
:1028D000FFF7A5BD70BD000010B586B004461421F9
:1028E0006846FDF7AAFC0E492068884216D10D48BB
:1028F000C16C41F00201C164C06C694600F0020085
:1029000005904FF4004000900220019000200290BA
:1029100003900E2004900448FEF712FC06B010BD90
:10292000004001400010024000040048704770B5AC
:10293000044690F83C0000260D4601280BD00120EB
:1029400084F83C000C2A4AD007DC82B1042A20D04B
:10295000082A06D131E0022070BD102A53D0142A73
:1029600063D00126002084F83C00304670BD20680A
:1029700001F018FA2068816941F00801816120683E
:10298000816921F004018161206881692A6911430C
:1029900011E0206801F054FA2068816941F4006177
:1029A00081612068816921F4806181612068816989
:1029B0002A6941EA02218161D4E7206801F088FA9E
:1029C0002068C16941F00801C1612068C16921F036
:1029D0000401C1612068C1692A69114311E02068BE
:1029E00001F0BEFA2068C16941F40061C16120684C
:1029F000C16921F48061C1612068C1692A6941EA25
:102A00000221C161AEE7206801F0E4FA2068416D5F
:102A100041F0080141652068416D21F004014165E4
:102A20002068416D2A69114311E0206801F00AFB1A
:102A30002068416D41F4006141652068416D21F4D9
:102A4000806141652068416D2A6941EA0221416542
:102A500088E710B5040003D094F83D0010B107E0FA
:102A6000012010BD002084F83C00204600F022F830
:102A7000022084F83D00211D206801F025F9012085
:102A800084F8480084F83E0084F83F0084F8400051
:102A900084F8410084F8420084F8430084F844003C
:102AA00084F8450084F8460084F8470084F83D0027
:102AB000002010BD08B500680649884208D10648C4
:102AC000016E41F480310166006E00F480300090A8
:102AD00008BD0000004001400010024070470000A7
:102AE00030B50446022269B1042912D0082917D052
:102AF0000C291CD0102921D094F84300012824D09F
:102B0000012030BD94F83E000128F9D184F83E2020
:102B10001DE094F83F000128F2D184F83F2016E030
:102B200094F840000128EBD184F840200FE094F89D
:102B300041000128E4D184F8412008E094F84200E3
:102B40000128DDD184F8422001E084F843200122ED
:102B5000206801F019F91A4A20681A4B1A49904264
:102B600009D0984207D0884205D0184DA84202D01B
:102B7000174DA84203D1456C45F4004545642068D3
:102B800090420FD0B0F1804F0CD0124A904209D041
:102B9000114A904206D0114A904203D0984201D087
:102BA000884207D181680E4A1140062906D0B1F546
:102BB000803F03D0016841F001010160002030BD79
:102BC000002C01400034014000400140004401401D
:102BD000004801400004004000080040000C004094
:102BE0000700010070B5044600681649164D88427A
:102BF0000CD116490520096888631548FFF790FD38
:102C000000206870287013A000F038FB124920687B
:102C1000884216D16868002813D100220F49104855
:102C2000FFF77CFA0D488378427801780DA001F017
:102C300099FDBDE87040044900220C310848FFF7B7
:102C40004BBA70BD00140040000000203402002088
:102C5000E80100202000000000440140080100209D
:102C6000780100206D61696E2E74392E7478743D80
:102C700022253032643A253032643A2530326422DB
:102C8000FFFFFF0070477047704770472DE9F04124
:102C900002680446D0691168936840F60F0528421F
:102CA0004FF0000505D186067ED58E067CD5616E77
:102CB0001BE1994F03F001060F40374374D0C7075B
:102CC00009D0CF0507D501271762D4F8802042F03C
:102CD0000102C4F8802082070AD5DA0708D02768E5
:102CE00002223A62D4F8802042F00402C4F8802024
:102CF00042070AD5DA0708D0236804221A62D4F8FA
:102D0000802042F00202C4F8802002070CD501F0B6
:102D10002002324308D0236808221A62D4F88020A7
:102D200042F00802C4F8802002050BD54A0109D5FB
:102D300023684FF400621A62D4F8802042F0200227
:102D4000C4F88020D4F88020002A35D0800605D52C
:102D5000880603D5616E09B120468847D4F8800003
:102D600021688968490602D410F0280F26D0204631
:102D700001F03CFA2068806840061AD520680830C7
:102D800050E8001F21F0400140E80012002AF5D170
:102D9000206F70B161498163206FFEF76AF80028E7
:102DA0000AD0206F816B01E00EE02046BDE8F041C3
:102DB00008472046FFF769FFBDE8F0812046FFF78E
:102DC00064FFC4F88050F7E7276E2026012F7BD1DF
:102DD000C70679D5CF0677D51020106220688068A5
:102DE000400641D5216F086840680004000CE3D01C
:102DF000B4F858208242DFD9A4F85A000868006865
:102E000080062AD4206850E8001F21F4807140E831
:102E10000012002AF6D12068083050E8001F21F087
:102E2000010140E80012002AF5D12068083050E87E
:102E3000001F21F0400140E80012002AF5D1E667AA
:102E40002566216851E8000F20F0100041E80002DB
:102E5000002AF6D1206FFDF7E7FFB4F85800B4F868
:102E60005A10401A81B22AE0B4F85800B4F85A1047
:102E7000401A81B2B4F85A0000289DD000299BD096
:102E8000226852E8000F20F4907042E80003002B03
:102E9000F6D12068083050E8002F22F0010240E807
:102EA0000023002BF5D1E66725666566226852E8A7
:102EB000000F20F0100042E80003002BF6D120465E
:102EC000FFF7E1FE78E7FFE7C70209D55B0207D508
:102ED0004FF4801010622046BDE8F041FFF7D4BEE9
:102EE000020606D50A0604D5A16E00297FF45DAF5F
:102EF00062E74006E6D54806E4D52046026852E877
:102F0000001F21F0400142E80013002BF6D1866734
:102F1000856600F0B0F94FE720010004D9410008B0
:102F200010B5040002D0A06F10B107E0012010BD61
:102F3000002084F87400204600F026F82420A067C2
:102F40002068016821F001010160204601F012FAB9
:102F50000128ECD0606A10B1204601F0ABF820687F
:102F6000416821F4904141602068816821F02A0184
:102F700081602068016841F0010101602046BDE8E0
:102F8000104001F0FBB800002DE9F043A9B0044661
:102F9000142122A8FDF751F988216846FDF74DF963
:102FA0004A4920684A4C0326072700254FF09049DC
:102FB0004FF0020888422AD1012000900E95684601
:102FC000FEF7B4FA08B1FDF78FFD206E40F48040A3
:102FD0002066206E00F480402790E06C40F00100F5
:102FE000E064E06C24AA00F0010027904FF4C06078
:102FF000CDE9220882E8E00022A94846FEF7A0F8C1
:10300000002201212520FEF71BFA25202BE0314963
:1030100088422DD1CDF8008068460F95FEF786FADC
:1030200008B1FDF761FDA06D40F40030A065A06D12
:1030300000F400302790E06C40F00100E064E06CA8
:1030400024AA00F0010027900C20CDE9220882E894
:10305000E00022A94846FEF773F80022012126204D
:10306000FEF7EEF92620FEF7DDF929B0BDE8F08382
:1030700019498842F9D10420009010956846FEF75E
:1030800055FA08B1FDF730FDA06D40F48020A06531
:10309000A06D00F480202790E06C40F00200E06416
:1030A000E06C24AA00F0020027904FF44060CDE9C4
:1030B000220882E8E00022A90848FEF741F8002231
:1030C00011462720FEF7BCF92720CCE70038014045
:1030D0000010024000440040004800400004004846
:1030E00030B4C36F202B20D1E1B1DAB190F8743045
:1030F000012B1AD0012380F87430002303660C4C96
:103100000368A3420BD05B681B0208D5046854E82F
:10311000003F43F0806344E80035002DF6D130BC19
:1031200001F04CBA012030BC70470220FBE70000E0
:10313000008000402DE9F041074600681B4900254A
:1031400001261B4C884214D11A4AA088A178115438
:10315000401C80B2A0800A2903D0A0F54071E73955
:1031600001D1A580267012490122891C1248FFF75F
:10317000B7FF12493868884216D10F4AE088E83A0A
:10318000E1781154401C80B2E0800A2901D0632804
:1031900001D1E5806670BDE8F0410549064801228D
:1031A000C91C8430FFF79CBFBDE8F081004400409B
:1031B00010000020CC0200209C07002000480040A6
:1031C0002DE9F8430446806F1F4616460D46202819
:1031D0004FD1CDB1C6B194F87400012849D0012077
:1031E00084F874004FF00008C4F880802120A067A4
:1031F000FEF7C0F8A4F850608146A4F85260A068B9
:10320000B0F5805F03D004E00120BDE8F8832069B9
:1032100028B12E465FF0000584F8748010E0002687
:10322000FAE78021204601F025FAB8B9C6B116F8B0
:10323000010B21680885B4F85200401EA4F8520022
:10324000B4F852004B464FF0000200970028E8D136
:103250004FF04001204601F00DFA30B10320D4E7D1
:1032600035F8020BC0F30800E3E72020A067002038
:10327000CBE70220C9E77047FEE7000010B5014622
:1032800003A001F06FFABDE8104006A001F06ABA91
:103290006D61696E2E7431312E7478743D22257300
:1032A00022000000FFFFFF0010B521A223A1264845
:1032B000FDF76AFB244825A227A10930FDF764FB2E
:1032C000214828A22AA11730FDF75EFB1E482BA239
:1032D0002FA13830FDF758FB1B4831A235A16E30C5
:1032E000FDF752FB184837A23BA1BA30FDF74CFB63
:1032F00015483DA240A1E230FDF746FB42A248A19D
:103300004D48FDF741FB4C484CA252A12130FDF73E
:103310003BFB494854A25BA13F30FDF735FB4648D3
:10332000BDE810405EA264A16330FDF72DBB000034
:103330005253542B4661696C0D0A00005253542BB2
:103340004F4B0D0A00000000C4BF00084D4F44451C
:103350002B4661696C0D0A004D4F44452B4F4B0DB8
:103360000A000000574946492B4661696C0D0A0066
:10337000574946492B4F4B0D0A0000005553455203
:10338000434F4E4649472B4661696C0D0A000000C9
:1033900055534552434F4E4649472B4F4B0D0A005C
:1033A000434F4E4E434F4E4649472B4661696C0D85
:1033B0000A000000434F4E4E434F4E4649472B4FA5
:1033C0004B0D0A00434F4E4E454354494F4E2B463A
:1033D00061696C0D0A000000434F4E4E454354494D
:1033E0004F4E2B4F4B0D0A00535542534352494207
:1033F0002B4661696C0D0A005355425343524942B2
:103400002B4F4B0D0A000000535542534352494283
:1034100020574541544845522B4661696C0D0A00BE
:10342000535542534352494220574541544845520F
:103430002B4F4B0D0A000000CBC0000853554253E0
:103440004352494220444F4F522B4661696C0D0A4A
:1034500000000000535542534352494220444F4F0D
:10346000522B4F4B0D0A00005355425343524942D1
:103470002055504441544554494D452B4661696C93
:103480000D0A0000535542534352494220555044BF
:1034900041544554494D452B4F4B0D0A0000000047
:1034A00053554253435249422044425245532B46BE
:1034B00061696C0D0A000000535542534352494262
:1034C0002044425245532B4F4B0D0A0000B589B0A2
:1034D00024216846FCF7B1FE0E490D4808600846F5
:1034E000FDF799FB08B1FDF7FFFA00200421CDE9B3
:1034F00000010221CDE90210024604906946054808
:10350000FDF7F7FA002801D0FDF7EEFA09B000BD8B
:10351000007400401C010020054808B5816C41F092
:1035200001018164806C00F00100009008BD000082
:103530000010024030B587B014216846FCF77DFECC
:103540002248C16C41F00401C164C16C01F0040166
:103550000591C16C41F08001C164C16C01F0800132
:103560000591C16C41F00101C164C16C01F0010120
:103570000591C16C41F00201C164C06C144D00F0B2
:1035800002000590002220212846FDF7EDFE1020C4
:1035900000904FF444100124CDE901046946284607
:1035A000FDF7CEFD202000900021CDE901410391DF
:1035B00069462846FDF7C4FD022211460A20FDF7A0
:1035C0003FFF0A20FDF72EFF07B030BD001002407C
:1035D0000008004810B586B014216846FCF72DFE9F
:1035E000204800241E490594C0E900147F21816011
:1035F000FF21C0E9031444618461C461FEF7B8FD92
:1036000008B1FDF771FA8DF800408DF801402820CF
:103610008DF8020003940022694612480494FEF7D4
:1036200067FE08B1FDF760FA01208DF814008DF8EF
:1036300015008DF816008DF81740002205A90948DD
:10364000FEF706FE08B1FDF74FFA042201210548F6
:10365000FEF7E8FC002801D0FDF746FA06B010BDE1
:10366000002800407801002010B596B00024129484
:1036700013941C210BA81494FCF7DFFD2C21684641
:10368000FCF7DBFD20481F49016041F63F71C0E9AE
:103690000114C721C0E9031444618461FFF7D9F91B
:1036A00008B1FDF721FA129412A917481494FEF7F5
:1036B000FDFE08B1FDF718FA60200B900520CDE95A
:1036C0000C040E940F94109404220BA90E4811942C
:1036D000FFF72DF908B1FDF707FA00944FF40050F9
:1036E000CDE90440019402940394694606480A9483
:1036F000FEF796FE08B1FDF7F7F90348FFF7ECF87F
:1037000016B010BD00400140340200200C4810B536
:103710000A49016049F63F414160002140F2E73229
:10372000C0E90212016141618161FEF70DFF0028CD
:1037300003D0BDE81040FDF7D7B910BD00440140EB
:10374000800200203EB500240F48009401940D49EA
:10375000029401600A21C0E9011440F2E73184615A
:10376000C160FEF7F1FE08B1FDF7BEF92020009020
:10377000694602940448FEF799FE002801D0FDF73F
:10378000B3F93EBD001000409C0100203EB500246E
:103790001048009401940E490294016041F63F7173
:1037A000C0E9011447F22F518461C160FEF7CCFEDD
:1037B00008B1FDF799F92020009069460294054868
:1037C000FEF774FE002801D0FDF78EF93EBD000023
:1037D00000140040E80100200D4810B50B490160BD
:1037E0004FF4E1314160002181600C22C160C0E9E9
:1037F00004128161C16101624162FFF791FB0028FF
:1038000003D0BDE81040FDF76FB910BD003801408E
:10381000180700200D4810B50B4901604FF4E13145
:103820004160002181600C22C160C0E90412816105
:10383000C16101624162FFF773FB002803D0BDE85C
:103840001040FDF751B910BD004400409C07002016
:103850000D4810B50B4901604FF41651416000212D
:1038600081600C22C160C0E904128161C161016202
:103870004162FFF755FB002803D0BDE81040FDF77B
:1038800033B910BD0048004020080020FEE7FEE7E5
:10389000704700002DE9F041444C05468846E06839
:1038A0000026810728680DD0E16801F003018142FC
:1038B00016D1A8B1E0686968C0F30210401C8842C4
:1038C0000ED120E0012804D0022805D0032807D11A
:1038D00008E02168890701E021684905002907DB24
:1038E00001265FE02168890302D421684903F5E7D6
:1038F000E1686A686FF00F0321F0730103EB0212B5
:1039000011430143E160206820F080602060FDF7F2
:1039100031FD074605E000BFFDF72CFDC01B022866
:1039200037D820680001F7D4B8F1000F18D0B8F1EB
:10393000010F1ED0287D4FF07E41400801EB406012
:10394000A96840EA01202169194A11400843206111
:10395000206840F080602060FDF70CFD07461AE00B
:10396000A868E9680002090940EA41402169114A52
:10397000EBE7288A1049400801EB4050A96840EA6B
:10398000012021690D4AE0E7FDF7F4FCC01B022885
:1039900001D9032606E020680001F5D52069A96950
:1039A000084320613046BDE8F0810000001002406D
:1039B000FF80FFF9FF80FDFF0000E0FFFF809FFF19
:1039C0002DE9F0413D4C06468846E0680025810718
:1039D00030680DD0E16801F00301814216D1A8B131
:1039E000E0687168C0F30210401C88420ED120E0EC
:1039F000012804D0022805D0032807D108E0216857
:103A0000890701E021684905002907DB012551E00C
:103A10002168890302D421684903F5E7E1687268E7
:103A20006FF00F0321F0730103EB02121143014306
:103A3000E160206820F080502060FDF79BFC074685
:103A400005E000BFFDF796FCC01B022829D82068BE
:103A50008000F7D4B8F1000F15D0307C4FF07E41D4
:103A6000400801EB4060B16840EA01206169144AF6
:103A7000114008436061206840F080502060FDF7ED
:103A800079FC07460FE0B068F1680002090940EAD6
:103A9000414061690B4AEBE7FDF76CFCC01B022853
:103AA00001D9032506E020688000F5D560697169B9
:103AB000084360612846BDE8F08100000010024024
:103AC000FF80FFF9FF80FDFFF8B51C4D064600247E
:103AD000A86DC00002D5FDF719FD0DE0A86D40F0FE
:103AE0008050A865A86D00F080500090FDF70EFD95
:103AF000A96D21F08051A965B0F5007F04D0802E1A
:103B000007D94FF003040AE0802E08D9A02E01D86F
:103B100004E001D1022402E0702E00D10124084803
:103B2000016821F0070121430160006800F00700EF
:103B3000A04201D00120F8BD0020F8BD00100240D5
:103B400000200240010901EB810100F00F0000EBB1
:103B50004100C0B270470022014602E00A39C9B2F2
:103B6000521C0A29FAD2100741EA1060704700007F
:103B70002DE9F041044600680025C168490617D4C4
:103B8000691EC160FDF7F6FB06464FF47A780327FD
:103B900008E000BFFDF7EEFB801B404502D903257E
:103BA00084F821702068C068400601D4032DF1D14B
:103BB0002846BDE8F08100002DE9F0410646134893
:103BC0000025016821F080010160041F20684FF08A
:103BD0000307800607D43046FEF7F0FB90B186F865
:103BE000217003250EE0206820F020002060304680
:103BF000FEF7E4FB10B186F821700325206840F041
:103C0000200020602846BDE8F08100000C2800401C
:103C10007047FDF7B5BB000010B596B0442168466B
:103C2000FCF70BFB142111A8FCF707FB4FF4007005
:103C3000FDF738FC08B172B6FEE7FDF76FFC1748D8
:103C400050F8901F21F018010160052000904FF4FA
:103C500080300121CDE90101022003240A90CDE941
:103C60000B4114210D910721CDE90E1010906846EB
:103C7000FDF74CFF08B172B6FEE70F20CDE9110445
:103C80000020139014901590042111A8FDF726FE32
:103C9000002801D072B6FEE716B010BD0010024039
:103CA0000248016841F470010160704788ED00E04E
:103CB0000148FEF74EBD0000800200200148FEF7DB
:103CC00048BD0000E80100202DE9F0470268264BBE
:103CD000264D274E274F284C4FF0804A984209D056
:103CE000504507D0A84205D0B04203D0B84201D019
:103CF000A04204D122F0700C4A6842EA0C02DFF8BC
:103D00007CC0DFF87C80DFF87C9098420FD0504573
:103D10000DD0A8420BD0B04209D0B84207D0A04283
:103D200005D0604503D0404501D0484503D122F479
:103D30004075CA682A434D6922F080022A43026016
:103D40008A68C2620A688262984207D0A04205D09F
:103D5000604503D0404501D0484501D10969016360
:103D600001214161BDE8F087002C014000040040C2
:103D700000080040000C00400034014000400140B9
:103D8000004401400048014010B501F01F0301212B
:103D9000046A99408C430462016A9A4011430162AB
:103DA00010BD00002DE9F043026A22F00102026218
:103DB000056A436882691C4C25F0020522400C68A4
:103DC00022F0030214438A68194E2A43174D194FF3
:103DD000DFF864C0DFF86490A84207D0B04205D095
:103DE000B84203D0604501D0484506D122F008080A
:103DF000CA6842EA080222F00402A84207D0B04290
:103E000005D0B84203D0604501D0484505D14D6981
:103E100023F440731D438B692B43436084614968DD
:103E200041630262BDE8F0838FFFFEFF002C01407A
:103E3000003401400040014000440140004801407E
:103E4000F0B5026A22F010020262056A42688369D4
:103E5000194C1B4E23400C6823F4407343EA04249E
:103E600025F020038D6843EA0513144DA84201D0C4
:103E7000B04206D1CF6823F0800343EA071323F052
:103E80004003A8420AD0B04208D00E4DA84205D047
:103E90000D4DA84202D00D4DA84207D14D6922F424
:103EA000406242EA85028D6942EA8502426084618D
:103EB000496881630362F0BDFF8FFFFE002C014063
:103EC00000340140004001400044014000480140EE
:103ED000F0B5026A22F480720262056A4368C26920
:103EE000194C1B4E22400C6822F00302144325F4A7
:103EF00000728D6842EA0522144DA84201D0B042FA
:103F000006D1CF6822F4006242EA072222F48062DE
:103F1000A8420AD0B04208D00E4DA84205D00E4D9E
:103F2000A84202D00D4DA84207D14D6923F4405359
:103F300043EA05138D6943EA05134360C461496888
:103F4000C1630262F0BD00008FFFFEFF002C014044
:103F5000003401400040014000440140004801405D
:103F600030B5026A22F480520262046A4268C36970
:103F7000124D24F400542B400D6823F4407343EA9F
:103F800005238D6844EA05340D4DA8420BD00D4D34
:103F9000A84208D00C4DA84205D00C4DA84202D032
:103FA0000B4DA84204D14D6922F4804242EA8512A9
:103FB0004260C36149680164046230BDFF8FFFFE47
:103FC000002C014000340140004001400044014009
:103FD0000048014030B5026A22F480320262046A6D
:103FE0004268436D114D2B400D681D4324F400338E
:103FF0000C8943EA04430E4CA0420BD00D4CA04266
:1040000008D00D4CA04205D00C4CA04202D00C4C64
:10401000A04204D14C6922F4803242EA0422426078
:10402000456549688165036230BD00008FFFFEFF72
:10403000002C014000340140004001400044014098
:104040000048014030B5026A22F480120262046A1C
:104050004268436D114D24F400142B400D6843EA6F
:1040600005230D8944EA05540D4DA8420BD00D4D92
:10407000A84208D00C4DA84205D00C4DA84202D051
:104080000B4DA84204D14D6922F4802242EA8522D8
:10409000426043654968C165046230BDFF8FFFFE21
:1040A000002C014000340140004001400044014028
:1040B0000048014090F82410C90706D001684A68FA
:1040C000836A22F400321A434A6090F82410890768
:1040D00006D501684A68C36A22F480321A434A60EE
:1040E00090F82410490706D501684A68036B22F44A
:1040F00080221A434A6090F82410090706D5016807
:104100004A68436B22F400421A434A6090F8241034
:10411000C90606D501688A68836B22F480521A4367
:104120008A6090F82410890606D501688A68C36BF6
:1041300022F400521A438A6090F82410490611D5DF
:1041400001684A68036C22F480121A434A60016CC9
:10415000B1F5801F06D101684A68436C22F4C002A1
:104160001A434A6090F82410090606D501684A6887
:10417000806C22F4002202434A607047F8B50026A2
:104180000446C0F88060FDF7F5F805462068006831
:104190006FF07E47000708D52B4600224FF4001130
:1041A0002046009700F066FA60B920680068400772
:1041B0000AD52B4600224FF480012046009700F0DC
:1041C00059FA08B10320F8BD2020A067E0672666F1
:1041D00084F874600020F8BD10B5806A0021A0F852
:1041E0005A10A0F85210FEF750FD10BD016851E8BA
:1041F000002F22F4907241E80023002BF6D10168D1
:10420000083151E8002F22F0010241E80023002B81
:10421000F5D1016E012908D1026852E8001F21F092
:10422000100142E80013002BF6D12021C1670021C4
:1042300001664166704710B5B0F85C20C36F016835
:10424000222B04D0088B40F00800088310BD898C15
:10425000436D11401980416D891C4165B0F85A10B9
:10426000491EA0F85A10B0F85A100029EED1026881
:1042700052E8001F21F4907142E80013002BF6D1A0
:104280000168083151E8002F22F0010241E80023C3
:10429000002BF5D12021C16700214166026E012A61
:1042A00002D0FEF747FF10BD0166026852E8001F0A
:1042B00021F0100142E80013002BF6D10168CA6911
:1042C000D243D20601D410220A62B0F85810FEF789
:1042D000DAFC10BD10B5B0F85C20C36F0168222B6A
:1042E00004D0088B40F00800088310BD898C114071
:1042F000426D1170416D491C4165B0F85A10491E5C
:10430000A0F85A10B0F85A100029EED1026852E80D
:10431000001F21F4907142E80013002BF6D10168D0
:10432000083151E8002F22F0010241E80023002B60
:10433000F5D12021C16700214166026E012A02D019
:10434000FEF7F8FE10BD0166026852E8001F21F07A
:10435000100142E80013002BF6D10168CA69D2436C
:10436000D20601D410220A62B0F85810FEF78BFC76
:1043700010BD00002DE9F041044601688068226903
:10438000E3691043626900251A431043814F0A68AC
:10439000814B1A4002430A6020684168E26821F4B8
:1043A0004051114341602168A069B94201D0226A9D
:1043B00010438A6822F4306202438A607749226897
:1043C00077488A420DD1D0F8880010F0030006D05B
:1043D000012866D0022854D0032851D163E001207F
:1043E0004FE070498A420BD1D0F8880010F00C00E1
:1043F00047D0042845D0082851D00C2840D152E09D
:1044000069498A420BD1D0F8880010F0300038D0CA
:10441000102846D0202842D0302831D143E06349CB
:104420008A420BD1D0F8880010F0C00029D0402873
:1044300037D0802833D0C02822D134E05C498A426A
:104440000ED1D0F8880010F440701AD0B0F5807FFB
:1044500027D0B0F5007F22D0B0F5407F10D122E008
:10446000BA420DD1D0F8880010F4406009D0B0F500
:10447000806F16D0B0F5006F11D0B0F5406F12D03C
:1044800010204C4900264FF40043BA422ED160B1AF
:1044900002280DD004280DD008286FD10EE002208C
:1044A000EFE70420EDE70820EBE7FDF7B9FA03E0BA
:1044B0000B4603E0FDF7D8FA030060D0626802EB18
:1044C000420098425AD8B3EB023F57D8190E1B024C
:1044D0005008181871410023FBF774FE364AA0F506
:1044E000407191424AD82168C86048E0E2694FF6BD
:1044F000EF779A4227D1092840D2DFE800F005087B
:104500000D3F213F3F3F0E00FDF78AFA01E0FDF726
:1045100099FA030001D132E00B466068590001EBC3
:104520005001B1FBF0F0A0F11001B94226D84FF6CE
:10453000F0710140C0F3420001432068C1601EE0F9
:10454000FDF792FAE5E7092818D2DFE800F0050840
:104550000D171D1717170E00FDF762FA01E0FDF7A2
:1045600071FA030001D10AE00B46606803EB5001C9
:10457000B1FBF0F0A0F11001B94208D9012566663F
:104580002846A666BDE8F081FDF76EFAE9E780B23D
:10459000A9E7000000800040F369FFEF0038014008
:1045A000001002400044004000480040004C004021
:1045B000005000400024F400FFFC0F0030B54165BE
:1045C000A0F85820A0F85A200022426681684FF4D3
:1045D0008055FF23A94204D1016971BB40F2FF114C
:1045E00031E07F2439B3B1F1805F29D0A0F85C209D
:1045F000C0F880202221C1670168083151E8003FDE
:1046000043F0010341E80034002CF5D18168A94250
:1046100001D10169E9B11549416680F87420016949
:10462000C9B1026852E8001F41F4907142E80013DA
:10463000002BF6D118E0016941B9A0F85C30D7E74A
:10464000016919B13F21A0F85C10D1E7A0F85C40E6
:10465000CEE70749E0E7026852E8001F41F0200179
:1046600042E80013002BF6D1002030BDD5420008EF
:10467000374200082DE9F0479A4617460E46044691
:104680004FF000094FF02008089D4AE0681C48D010
:10469000FCF770FEA0EB0A00A8422AD84DB32068B0
:1046A000016849073DD5C069C043000539D4216878
:1046B0004FF400600862206850E8001F21F4D071B8
:1046C00040E80012002AF6D12068083050E8001FA8
:1046D00021F0010140E80012002AF5D1C4F87880E9
:1046E000C4F87C80C4F8808084F874900320BDE80E
:1046F000F087216851E8000F20F4D07041E80002F3
:10470000002AF6D12068083050E8001F21F001018E
:1047100040E80012002AF5D1C4F87880C4F87C8003
:10472000E2E72068C06936EA000004D00020B84201
:10473000ACD00020DBE70120F9E700000148FEF7DC
:10474000A5BA0000180700200148FEF79FBA000034
:104750009C0700200148FEF799BA000020080020BD
:10476000FEE700000FB4054B10B503A9044A0298F8
:1047700000F03CF810BC5DF814FB0000414B000851
:104780003C0000200FB4084B10B504A902AA0398FE
:1047900000F02CF8044602A9002000F0CBF92046D6
:1047A00010BC5DF814FB0000354B00080907090E2A
:1047B000002804DB00F1E02080F80014704700F0CE
:1047C0000F0000F1E02080F8141D704702E008C8D7
:1047D000121F08C1002AFAD170477047002001E07B
:1047E00001C1121F002AFBD1704700002DE9FF4FC5
:1047F0008BB088460546002606E025280BD0DDE96B
:104800000D1290476D1C761C28780028F5D10FB04A
:10481000304600F063B90024A146A2460122AE4909
:1048200000E0044315F8013F203B02FA03F0084280
:10483000F7D128782A2810D06FF02F022878A0F11D
:104840003001092915D809EB890102EB410144F037
:10485000020400EB01096D1CF0E758F8041B5FEA45
:10486000010903D544F40054C9F1000944F00204DD
:104870006D1C28782E2817D115F8010F44F0040478
:104880002A280ED06FF02F022878A0F130010929D4
:104890000AD80AEB8A0102EB410100EB010A6D1C08
:1048A000F2E758F804AB6D1C28786C280FD006DCB2
:1048B0004C2817D068280DD06A2814D104E0742839
:1048C00010D07A280FD10DE044F400140AE044F42B
:1048D000801401E044F440146978814202D104F567
:1048E00080146D1C6D1C2878692865D006DC0028B2
:1048F0008DD0632827D0642806D15DE06E2808D0CB
:1049000073282AD0752877D0DDE90D129047761CE0
:10491000E0E0C4F30250022809D003280DD0D8F8F3
:10492000001004280DD00E6008F10408D2E0D8F879
:104930000010F217C1E90062F6E7D8F800100E8007
:10494000F2E70E70F0E718F8041B8DF80010002055
:104950008DF80100EB46012003E058F804BB4FF04E
:10496000FF3061074FF0000701D40AE07F1C574574
:104970000DDA8742FADB1BF807100029F6D106E0B2
:104980007F1C8742FCDB1BF807100029F8D1DDE90A
:104990000D23A9EB07008146214600F0B4F830440E
:1049A000C61904E0DDE90D121BF8010B90477F1ECC
:1049B000F8D22146484688E058F8040BC4F3025167
:1049C0004FF00A0B032900D100B2042900D140B2F4
:1049D000002802DA40422D2102E0210505D52B21D5
:1049E0008DF82410012104E006E0E10710D0202119
:1049F000F6E708AF089113E058F8040BC4F302512E
:104A00004FF00A0B032900D180B2042900D1C0B2B3
:104A10000021EEE75946FBF775FD303107F8011D1F
:104A20000028F7D1ADEB070000F1200B600702D59D
:104A300024F4803401E04FF0010ADA4502DDAAEBEC
:104A40000B0000E00020824600EB0B0108980144B7
:104A5000A9EB01000A90E00306D4DDE90D2321460D
:104A60000A9800F050F806444FF0000908E009A940
:104A700011F80900DDE90D12904709F10109761CD2
:104A800008998945F3DBE0030CD5DDE90D232146C8
:104A90000A9800F038F8064404E0DDE90D123020F1
:104AA0009047761CBAF10001AAF1010AF5DC05E095
:104AB000DDE90D1217F8010B9047761CBBF10001E0
:104AC000ABF1010BF4DC0A982146DDE90D2300F07F
:104AD00008F806446D1C97E60928010030BCBDE8C3
:104AE000C08F2DE9F041044600251E461746880474
:104AF00004D405E039462020B0476D1C641EF9D56A
:104B00002846BDE8F0812DE9F041044600251E4607
:104B10009046C80301D5302700E02027880404D53B
:104B200005E041463846B0476D1C641EF9D528465D
:104B3000BDE8F0810A68531C0B60107070470000DC
:104B400013B53223012269460248FEF739FB00986B
:104B50001CBD000018070020FEB5604D2878002815
:104B600075D05F495F48FBF78CFB5FA15D48FBF7A1
:104B70006FFB00286BD05B4A5FA1C8325948FBF736
:104B800089FBC8215748FBF758FB5F4A5F48111F54
:104B90008DE80700A0F11403A0F128025C49F03869
:104BA000FBF778FB58485BA10838031F0090574873
:104BB0001A1F1438FBF76EFB4A48C821C830FBF7B0
:104BC0003CFB00245148FBF755FB82B24FF6FF76C1
:104BD00033464E495248FEF7F3FA3346012251A1BB
:104BE0004F48FEF7EDFA334602224FA14C48FEF73C
:104BF000E7FA4EA14548FBF72BFB00B101244AA17F
:104C00004248FBF725FB00B1022449A13F48FBF7CE
:104C10001FFB00B1032448A13C48FBF719FB00B17E
:104C2000042447A13948FBF713FB00B1052446A132
:104C30003648FBF70DFB00284DD1072C0ED2DFE8DC
:104C400004F00D04074446484A0041A001E03BE05F
:104C500043A0FFF787FD46A0FFF784FD2B4945A041
:104C60002839FFF77FFD42A0FFF77CFD274946A0CA
:104C7000FFF778FD3EA0FFF775FD234C47A0103CE1
:104C8000E168FFF76FFD3AA0FFF76CFD47A02169CF
:104C9000FFF768FD36A0FFF765FD48A02168FFF724
:104CA00061FD33A0FFF75EFD48A06168FFF75AFD84
:104CB0002FA0FFF757FD49A0A168FFF753FD2CA0D7
:104CC000FFF750FD00202870FEBD48A0C1E74BA0B3
:104CD000BFE74EA0BDE751A0BBE7000010000020D9
:104CE000CC020020A40800207468656D652F7765EC
:104CF0006174686572000000252A5B5E7B5D7B2520
:104D00005B5E7D5D7D000000380000205C0A0020B5
:104D100090C1000825642D25642D25640000000045
:104D2000200800200D0A0000D2F50000C7E70000AF
:104D3000D0A1D3EA00000000D6D0D3EA00000000E2
:104D4000B4F3D3EA00000000B6E0D4C600000000CF
:104D50006D61696E2E70302E7069633D3100000008
:104D60006D61696E2E70302E7069633D34000000F5
:104D7000FFFFFF006D61696E2E74382E7478743DEC
:104D800022257322000000006D61696E2E74332E9F
:104D90007478743D22257322000000006D61696EF5
:104DA0002E6E362E76616C3D256400006D61696E55
:104DB0002E6E372E76616C3D256400006D61696E44
:104DC0002E6E302E76616C3D256400006D61696E3B
:104DD0002E6E312E76616C3D256400006D61696E2A
:104DE0002E6E322E76616C3D256400006D61696E19
:104DF0002E70302E7069633D330000006D61696E66
:104E00002E70302E7069633D320000006D61696E56
:104E10002E70302E7069633D300000006D61696E48
:104E20002E70302E7069633D3500000008B5FCF728
:104E3000AFFAFEF7F1FEFEF77DFBFEF76DFBFEF726
:104E4000CBFCFEF7E7FCFEF703FDFEF77BFCFEF76D
:104E50003DFBFEF709FCFEF799FCFEF7BBFBFEF7F6
:104E600055FC0122BA49BB48FEF73AF90122BA497A
:104E7000BA48FEF735F9BA48FDF7D6FB0421B94820
:104E8000FDF72EFEDFF8DC820521D8F800008163F3
:104E9000B5A0FFF767FCFEF707FAB7A0FEF7EEF93B
:104EA00000F07AFAB548FDF7FBFBB54EB54CB64FAE
:104EB0004FF6FF7900256068B8B101287CD0022840
:104EC000F9D1307800280FD03570B0A1B448FBF785
:104ED000BFF90028F7D0AB4AB2A10832B048FBF7BF
:104EE000D9F9A068002868D00FE1FFF735FE3078C7
:104EF00000284AD03570B0A1A948FBF7A9F9B8B18C
:104F00002078A8B901202070AEA0FEF7B7F9D8F834
:104F10000000192181630021AD48FBF761FF0820E3
:104F2000009046F67423AB4A0021A948FBF7D0FE57
:104F3000A9A19B48FBF78CF994A19948FBF788F944
:104F4000002822D08F4A97A1121D9548FBF7A2F99D
:104F50006068D0B1012802D002280AD015E0A3A0D1
:104F6000FFF700FCA5A0FFF7FDFB32230A22A8A152
:104F700008E0AAA0FFF7F6FBACA0FFF7F3FB322393
:104F80000A22AFA17548FEF71BF93878002892D0A5
:104F90003D70AEA1AF48FBF75BF9E8B1AE4AAFA1F7
:104FA000AC48FBF777F9AC4AAFA1A2F16400FFF778
:104FB000E9FBA94B643B01E02FE09CE0AEA2B4A169
:104FC000A548FFF7DFFBA448FBF754F982B24B4634
:104FD000A1496048FEF7F4F8B5A19E48FBF738F9FF
:104FE00088B1B7A0FEF74AF9B9A3A3A2A8A19A482D
:104FF000FFF7C8FB9848FBF73DF982B24B4696494C
:105000005448FEF7DDF8B7A19248FBF721F90028D4
:10501000BDD0B7A0FEF732F94DE73078B8B13570A2
:105020005AA15F48FBF714F988B1564A5DA10832CE
:105030005B48FBF72FF9A06848B94BA06560FFF704
:1050400091FB32230A22AEA14448FEF7B9F8387822
:105050000028E1D03D707DA17E48FBF7F9F840B112
:105060007D4A7EA17B48FBF715F97B49A7A0FFF796
:1050700079FBADA17748FBF7EBF8D0B1764A77A181
:105080007448FBF707F9744AA9A1A2F16400FFF77D
:1050900079FB714B78A2643B7DA16F48FFF772FBEF
:1050A0006D48FBF7E7F882B24B466B492948FEF79B
:1050B00087F8A2A16748FBF7CBF80028ACD0664A76
:1050C00066A16448FBF7E6F8634A9FA1A2F1640079
:1050D000FFF758FB604B68A2643B6DA15E48FFF789
:1050E00051FB5D48FBF7C6F882B24B465A49194856
:1050F000FEF766F8DFE61CA06560FFF733FB32239E
:105100000A227FA11548FEF75BF838780028F1D015
:105110003D7091A14F48FBF79BF858B14E4A4FA103
:105120004C48FBF7B7F84C498DA0FFF71BFB37A0A5
:10513000FFF718FB8FA14748FBF78AF80028D9D062
:105140008EA0FFF70FFB31A0FFF70CFBB3E60000CA
:10515000120000209C0700201300002020080020DF
:105160009C0100203402002070616765206D616938
:105170006EFFFFFF00000000200000008002002002
:105180001000002000000020110000207468656DF0
:10519000652F73746D33327374617475730000001E
:1051A000CC020020252A5B5E7B5D7B252A5B5E3A74
:1051B0005D3A25647D0000007468656D652F646F3D
:1051C0006F720000BBB6D3ADBBD8BCD200000000EC
:1051D0001C010020085500087468656D652F757006
:1051E0006461746574696D650000000070616765D5
:1051F000207061676531FFFFFF0000007061676527
:10520000312E74302E7478743D222022FFFFFF006F
:105210007374617475733A310D0A000070616765CB
:10522000207061676530FFFFFF00000070616765F7
:10523000302E74302E7478743D222022FFFFFF0040
:105240007374617475733A320D0A000043617264BD
:1052500049640000B4060020A4000020252A5B5EFB
:105260003A5D3A25730000005265717565737443A9
:105270006172643A257300007468656D652F61631F
:10528000636573735F636F6E74726F6C0000000010
:1052900041542B4D5154545055423D302C222573CE
:1052A000222C222573222C302C300D0A0000000005
:1052B00046696E67657253756363657373000000BA
:1052C000D6B8CEC6CAB6B1F0B3C9B9A600000000C0
:1052D00046696E6765727072696E743A547275656C
:1052E0000000000046696E6765724661696C0000E7
:1052F000D6B8CEC6CAB6B1F0CAA7B0DC000000006E
:105300007374617475733A300D0A000070616765DB
:10531000312E74302E7478743D22BFA8BAC53A2558
:105320007322FFFFFF000000416464436172640068
:10533000416464436172643A2573000044656C659E
:10534000746543617264000044656C657465436113
:1053500072643A2573000000544558540000000060
:1053600070616765302E74302E7478743D22257319
:1053700022000000544558543A4944007061676562
:10538000302E74302E7478743D22D6B8CEC6CCED53
:10539000BCD3B3C9B9A62200F0B5A3B000242DA395
:1053A0002EA232A104A8FFF7EDF904A8FAF762FFD4
:1053B00082B24FF6FF7304A93448FDF701FF344E63
:1053C000344D641C307820B133A13848FAF740FFDF
:1053D00008B9AC42F5D94FF47A70FBF709FE1CAB63
:1053E0001BAA21A920A88DE80F001FAB1EAA30A17F
:1053F0002E48FAF74FFF219F1C981B991F9B209E58
:105400001E9A8DF85470CDE902108DF8551000F1F8
:10541000010C8DF877208DF875308DF856C08DF819
:1054200076602AA12E48CDE90067FFF7ABF900228C
:105430001DA92C48FCF70CFF002215A92948FCF7F0
:1054400057FFAC4201D828A000E02BA0FDF716FFC3
:1054500023B0F0BD75706461746500007468656D9B
:10546000652F7570646174655265710041542B4DF0
:105470005154545055423D302C222573222C222564
:1054800073222C302C300D0A000000009C070020F5
:105490001000002080F0FA027468656D652F757049
:1054A0006461746574696D6500000000CC020020C1
:1054B000252A5B5E7B5D7B323025642D25642D259E
:1054C000642025643A25643A25647D0025642C25F2
:1054D000642C25642C25642C25642C25640D0A007D
:1054E0004000002078010020BBF1C8A1CAB1BCE493
:1054F000B3C9B9A600000000BBF1C8A1CAB1BCE4A1
:10550000CAA7B0DC000000008180817F808080809D
:105510008080808080808081807F7F80808180808B
:1055200080807F808080807F80808081808080807C
:105530007F817F8081808080808180818081808068
:1055400081808180808080808080817F8080808059
:10555000808080808180807F81808080807F7F804C
:1055600080808080807F8080807F8080808080803D
:105570008080807F80807F7F81808080808080802D
:1055800080807F80818180808180817F8081808018
:1055900080807F808080808080808080808080800C
:1055A000807F8080808080807F80808080807F80FE
:1055B00080808180808080817F7F808080818080EA
:1055C000807F8080808080807F7F8080807F7F80E0
:1055D000807F8180807F80808080808080807F80CD
:1055E00081808080818080808080808080808081B8
:1055F000807F80808180808080818080807F7F80AC
:1056000080808080807F808080808080807F80809C
:1056100080808080807F8080808180807F8080818A
:10562000808080808080807F808081818081808078
:10563000808081808080808180817F808080808068
:105640008080808080808080808080808180808059
:105650007F80807F7F807F808080808181807F804D
:105660008080808180817F81847D7D7E7D83848137
:1056700083817F80807E7D7E7D7E807F818180842E
:10568000817F84807F857C81807F80807D7F7E7D1F
:10569000827C7F807F80817F807F8080808081800E
:1056A000807F807F7F7F807E807E80817F7F838000
:1056B00080808181828181827F80817F8080807EE5
:1056C00081807F8081807F817E82807E847C847FD8
:1056D0007D837F7E8180807E827D80807E818080D0
:1056E0007F817E837D837F80837E80807F827E82B8
:1056F00080817D857C837E7F817E807E847A867EAC
:105700007C85817B85807C877B81837C80847B8397
:10571000817F7F837B83827B82837C8481807E8385
:1057200080817F7C867E7E857E7C857A85807D8279
:10573000827A83847A81847A82837E7D877B80816A
:10574000807D7F827C827E7E827D817F7D83817C65
:1057500081837B827F7E7F817E817E8082807C844C
:10576000817982867C7D897E7C8181837B81827D3B
:105770008080847B84827C837F807F847A847E8027
:10578000827E837D857A84857980887F7A86827D12
:10579000817F82827B82827E80827F8081817F7F07
:1057A000837D80817E80837C81817E80827C8084F9
:1057B0007B867C80847B8181807C85817C83837FE8
:1057C0007F80827F7E817F837E7D867D7D82837CDC
:1057D000837F847D7D86807B7F86817883847F7CC8
:1057E00083817E80817F7E81817B83807D81847EB9
:1057F0007E837F807E84817E7E857D817F807F82A7
:105800007D7E83807C82847E7E84817D8082807D9B
:105810008282807E83817B80847C818081827E8184
:10582000837C8281827D7F85807F7E83837E7C8670
:10583000817D8080847F7F7F8380807B82837D8069
:1058400081837E80827D80827F7F7F83847E7D8353
:10585000827D80817E81827D80807F7F807F7F7F4F
:1058600081807D7F80827D808180827F8181818136
:10587000807F7F817F7F81817F7C81817C7B838230
:105880007B7C84827D818282827E8385817F82820D
:1058900080807C807F7D7C7E7D7C7D7E7E7D7F8127
:1058A000838181868683848887818286847E7A80CC
:1058B0007F7876797977747A7C7C7D7F838686871A
:1058C0008A8C8D8A8C8C8A898682807C78757171AD
:1058D0006F6F717175767A7E8183898C8C8E9397C8
:1058E000918E90938A83807E79736E6C6C696A6CFA
:1058F0006F73747A7F85878B919494949698949023
:105900008D8F877D7A77716C68676869686C71764E
:105910007A7E848A8E91949597999594908F8987B1
:10592000827A75706E6965666A696B6F767C7D8256
:105930008A8C9094949797979590908E8A827D7890
:10594000766D68686866666A6F72757A82878A8E15
:1059500091959797979895918E8C88817B77716BAD
:10596000686766656A6B6E74767D81868B919396A7
:1059700099989A989591918B867F7A756F6B6866E6
:105980006465696C7072787F83888C919498989A1A
:105990009B9894918F8A857D77746E68666564653F
:1059A000686C7074797F848B8D92979A999B9B9980
:1059B00094918E898279726F6C6562626467696D99
:1059C00071777D83888D91969A9A9A9A9A97918DFC
:1059D0008A857E78726D6866646464676B717478BA
:1059E0007F848C8F9395989A9B9997948F8E8883B8
:1059F0007C77726D6864656767696D71757A7E849E
:105A0000878E9396999A9B999895918D88827C76AA
:105A1000706D69656364676A6C70767B81868B8F55
:105A20009598989A9B9B97928F8C867E7974706AD2
:105A300068676568696B6E72787D81868C909496D4
:105A40009A9A9C9895918F8A837B76726D6964642B
:105A500066696A6C6F757C8084898E9398999A9A2E
:105A60009B9894918D87807A746F6A676666666882
:105A70006C7075777D83888C9295999A999A989590
:105A8000928C878179746F6C68666667686C6F73D7
:105A9000787C81868B909395989A9A9996948F8921
:105AA000837C76726D69666567696B6E71747A7FE7
:105AB00084888C9194989A9B999694908C867E7801
:105AC00075706C6865686A6C6D6F72787E82868BA3
:105AD00090949698999B9895938D87827A76706C1E
